:04000000F7EF00F026
:100008004582F3CF19F0F4CF1AF09DA00EEF00F05F
:1000180010EF00F0F1EF00F09EA015EF00F017EFE1
:1000280000F0F1EF00F0D6CF2DF0D7CF2EF0314A07
:10003800322A32BE29EF00F0260E315C1D0E3258EE
:10004800D8A029EF00F02BEF00F064EF00F0000ECD
:10005800326E000E316E010E2F242F6E000E3020EE
:10006800306E000E046E0C0E036E2DC001F02EC013
:1000780002F0CAEC18F03C0E0102F3CF17F0F4CFEF
:1000880018F00202F350182617C009F018C00AF039
:10009800000E0ABEFF0E0B6E0C6E010EAEEC13F0D6
:1000A80009C0E3F00AC0E4F00BC0E5F00CC0E6F0CC
:1000B800000ED76E000ED66E000E2E6E000E2D6E40
:1000C80030BE70EF00F0305009E1030E2F5CD8A06D
:1000D80070EF00F072EF00F083EF00F030BE80EFB9
:1000E80000F0305007E1070E2F5CD8B07EEF00F02B
:1000F80080EF00F083EF00F0CA841F0EBB6E30BEA5
:100108008FEF00F0305009E1070E2F5CD8A08FEF79
:1001180000F091EF00F0A1EF00F030BE9FEF00F08B
:10012800305007E10D0E2F5CD8B09DEF00F09FEF27
:1001380000F0A1EF00F0400EBB6E30BEADEF00F056
:10014800305009E10D0E2F5CD8A0ADEF00F0AFEFF5
:1001580000F0BFEF00F030BEBDEF00F0305007E117
:10016800140E2F5CD8B0BBEF00F0BDEF00F0BFEF6E
:1001780000F0600EBB6E30BECBEF00F0305009E1EE
:10018800140E2F5CD8A0CBEF00F0CDEF00F0DDEF20
:1001980000F030BEDBEF00F0305007E11B0E2F5CA3
:1001A800D8B0D9EF00F0DBEF00F0DDEF00F0390E4A
:1001B800BB6E30BEE9EF00F0305009E11B0E2F5C3A
:1001C800D8A0E9EF00F0EBEF00F0ECEF00F0BB6A2D
:1001D800FD0ECF6EE80ECE6E9E901AC0F4FF19C0C9
:1001E800F3FF45921100FEEF1AF00001A66B7EC0E6
:1001F800A7F07FC0A8F080C0A9F081C0AAF0AABF6C
:100208000AEF01F008EF01F01EEF01F0010EA66FF2
:10021800A7C01BF0A8C01CF0A9C01DF0AAC01EF002
:10022800C4EC1CF01BC0A7F01CC0A8F01DC0A9F0AE
:100238001EC0AAF0000E0001AC6F000EAB6FE7C045
:1002480096F0E8C097F0A651D8B42DEF01F02FEF43
:1002580001F043EF01F0A651D8A435EF01F037EFD4
:1002680001F03DEF01F0000E8C6F2B0E8B6F41EF0C
:1002780001F0000E8C6F2D0E8B6F8BC0A6F0A7C0FF
:100288001BF0A8C01CF0A9C01DF0AAC01EF01AECF3
:1002980017F01B041C10D8A454EF01F056EF01F01E
:1002A80087EF01F00001A651D8B45DEF01F05FEFD0
:1002B80001F068EF01F0A6C000F19607D8A09707F3
:1002C800000EAC6F010EAB6F000EAB251B6E010E5E
:1002D800AC211C6EE40E1D6EFF0E1E6EA8EC1CF009
:1002E8000001FD0E9627FF0E97237DC060F0000EDB
:1002F800616F010E626F96C063F097C064F033ECD3
:100308001BF0EEEF05F0A7C01BF0A8C01CF0A9C0B9
:100318001DF0AAC01EF01AEC17F01B501C10D8A430
:1003280098EF01F09AEF01F0BAEF01F00001A65141
:10033800D8B4A1EF01F0A3EF01F0ACEF01F0A6C033
:1003480000F19607D8A09707000EAC6F010EAB6FAF
:10035800000EAB251B6E010EAC211C6EE80E1D6E47
:10036800FF0E1E6EA8EC1CF074EF01F0000E0001E9
:10037800AD6F000EAE6F800EAF6F3F0EB06F000E08
:10038800956F000E946FA7C01BF0A8C01CF0A9C001
:100398001DF0AAC01EF0000E1F6E000E206E000E8B
:1003A800216E000E226ED8EC19F0D8B0DEEF01F005
:1003B800E0EF01F0C0EF02F0EDEF01F098C0ADF012
:1003C80099C0AEF09AC0AFF09BC0B0F00001944B5A
:1003D800952BADC01BF0AEC01CF0AFC01DF0B0C077
:1003E8001EF0000E1F6E000E206E200E216E410EB4
:1003F800226E8CEC0CF01BC098F01CC099F01DC04C
:100408009AF01EC09BF000019851A75D1B6E995190
:10041800A8591C6E9A51A9591D6E9B51AA591E6E56
:10042800D0EC1BF01EBE24EF02F01E501D101C1055
:1004380009E1020E1B5CD8A024EF02F026EF02F0BF
:10044800E2EF01F098C06DF099C06EF09AC06FF0BD
:100458009BC070F0A7C071F0A8C072F0A9C073F07B
:10046800AAC074F097EC16F00001D8A03EEF02F095
:1004780040EF02F0E2EF01F0AD51A75D1B6EAE5107
:10048800A8591C6EAF51A9591D6EB051AA591E6EBC
:10049800D0EC1BF01EBE5EEF02F01E501D101C10AB
:1004A80007E1020E1B5CD8B05CEF02F05EEF02F0D1
:1004B800A6EF02F0ADC0A7F0AEC0A8F0AFC0A9F09B
:1004C800B0C0AAF0C0EF02F0ADC01BF0AEC01CF087
:1004D800AFC01DF0B0C01EF0000E1F6E000E206EE3
:1004E800200E216E410E226EA0EC0EF01BC0ADF066
:1004F8001CC0AEF01DC0AFF01EC0B0F000019407E4
:10050800D8A09507AD51A75D1B6EAE51A8591C6EBA
:10051800AF51A9591D6EB051AA591E6ED0EC1BF0EF
:100528001EBEA4EF02F01E501D101C1007E1020EA3
:100538001B5CD8B0A2EF02F0A4EF02F0A6EF02F025
:100548005EEF02F0A7C06DF0A8C06EF0A9C06FF012
:10055800AAC070F0ADC071F0AEC072F0AFC073F059
:10056800B0C074F097EC16F00001D8A0BEEF02F00E
:10057800C0EF02F068EF02F082C08EF08EC08FF0FC
:100588000001EABFCAEF02F0CCEF02F0D2EF02F0AE
:10059800E9C087F0EAC088F0D6EF02F0000E886F55
:1005A800060E876F87C092F088C093F0924B932B0A
:1005B800660E8F19D8A4E3EF02F0E5EF02F005EF1D
:1005C80003F095BFECEF02F0EAEF02F0F8EF02F06B
:1005D800000EAD6F000EAE6F800EAF6F3F0EB06FA6
:1005E800000E956F000E946F670E8E19D8B4FFEF4A
:1005F80002F001EF03F005EF03F0945192279551B3
:100608009323000E9D6F000E9C6FA7C09EF0A8C09C
:100618009FF0A9C0A0F0AAC0A1F0ADC098F0AEC0EC
:1006280099F0AFC09AF0B0C09BF096EF03F09EC06F
:100638001BF09FC01CF0A0C01DF0A1C01EF0ADC0F3
:100648001FF0AEC020F0AFC021F0B0C022F0A0EC87
:100658000EF01BC027F01CC028F01DC029F01EC0DA
:100668002AF0A9EC11F027C0A2F028C0A3F029C0F5
:10067800A4F02AC0A5F0A2C01BF0A3C01CF0A4C01F
:100688001DF0A5C01EF014EC16F01BC090F01CC0A5
:1006980091F09EC06DF09FC06EF0A0C06FF0A1C039
:1006A80070F0A2C01FF0A3C020F0A4C021F0A5C024
:1006B80022F0ADC01BF0AEC01CF0AFC01DF0B0C042
:1006C8001EF08CEC0CF01BC071F01CC072F01DC049
:1006D80073F01EC074F023EC1CF06DC09EF06EC069
:1006E8009FF06FC0A0F070C0A1F0ADC01BF0AEC00D
:1006F8001CF0AFC01DF0B0C01EF0000E1F6E000E43
:10070800206E200E216E410E226EA0EC0EF01BC052
:10071800ADF01CC0AEF01DC0AFF01EC0B0F00001BF
:100728009C4B9D2B92519C5D9D51800A836F9351E8
:10073800800A8359D8A0A3EF03F0A5EF03F01BEFBD
:1007480003F0ADC01BF0AEC01CF0AFC01DF0B0C0D0
:100758001EF0000E1F6E000E206EA00E216E400EC1
:10076800226E8CEC0CF01BC0A2F01CC0A3F01DC0C4
:10077800A4F01EC0A5F09EC06DF09FC06EF0A0C092
:100788006FF0A1C070F0A2C071F0A3C072F0A4C055
:1007980073F0A5C074F097EC16F00001D8B0D7EF4D
:1007A80003F0D9EF03F0E3EF03F0000EA26F000EA1
:1007B800A36F000EA46F000EA56F0CEF04F09EC08F
:1007C8001BF09FC01CF0A0C01DF0A1C01EF0A2C06D
:1007D8001FF0A3C020F0A4C021F0A5C022F0D8ECDF
:1007E80019F0D8A0FAEF03F0FCEF03F00CEF04F0D7
:1007F800000190B102EF04F004EF04F00CEF04F0F4
:10080800000EA26F000EA36F000EA46F000EA56F5E
:10081800A7C01BF0A8C01CF0A9C01DF0AAC01EF0FC
:10082800A2C01FF0A3C020F0A4C021F0A5C022F0F0
:10083800EFEC05F01BC09EF01CC09FF01DC0A0F09F
:100848001EC0A1F09EC06DF09FC06EF0A0C06FF0FA
:10085800A1C070F0000E1F6E000E206E200E216EDB
:10086800410E226E98C01BF099C01CF09AC01DF072
:100878009BC01EF08CEC0CF01BC071F01CC072F019
:100888001DC073F01EC074F097EC16F00001D8A0DC
:1008980050EF04F052EF04F07AEF04F0944B952BEC
:1008A80098C01BF099C01CF09AC01DF09BC01EF0A8
:1008B800000E1F6E000E206E200E216E410E226E5D
:1008C8008CEC0CF01BC098F01CC099F01DC09AF07D
:1008D8001EC09BF0660E00018F19D8A476EF04F0B5
:1008E80078EF04F07AEF04F0924B932B98C0ADF0B8
:1008F80099C0AEF09AC0AFF09BC0B0F094C085F03C
:1009080095C086F08D6B000E8A6F000E896F000E01
:100918009D6F000E9C6F76EF05F09EC01BF09FC088
:100928001CF0A0C01DF0A1C01EF0ADC01FF0AEC0ED
:1009380020F0AFC021F0B0C022F0A0EC0EF01BC038
:1009480027F01CC028F01DC029F01EC02AF0A9EC11
:1009580011F027C0A2F028C0A3F029C0A4F02AC033
:10096800A5F0A2C01BF0A3C01CF0A4C01DF0A5C038
:100978001EF014EC16F01CBECDEF04F01C5007E17D
:100988000A0E1B5CD8B0CBEF04F0CDEF04F0DDEF1E
:1009980004F0A2C01BF0A3C01CF0A4C01DF0A5C0A9
:1009A8001EF014EC16F01BC090F01CC091F0E2EFA2
:1009B80004F0000E0001916F090E906F00018D5137
:1009C800D8A4E9EF04F0EBEF04F013EF05F086BFCD
:1009D800F2EF04F0F0EF04F013EF05F0000EAB2592
:1009E800D96E010EAC21DA6E2E0EDF6EAB4BAC2B3E
:1009F8009607D8A09707010E8D6F13EF05F0000E2C
:100A0800AB25D96E010EAC21DA6E300EDF6EAB4B22
:100A1800AC2B9607D8A097078907D8A08A078951D1
:100A28008A11D8A41AEF05F01CEF05F003EF05F0C2
:100A3800000EAB25D96E010EAC21DA6E9051300F45
:100A4800DF6EAB4BAC2B9607D8A097079EC06DF016
:100A58009FC06EF0A0C06FF0A1C070F0A2C01FF0E0
:100A6800A3C020F0A4C021F0A5C022F0ADC01BF0A7
:100A7800AEC01CF0AFC01DF0B0C01EF08CEC0CF086
:100A88001BC071F01CC072F01DC073F01EC074F062
:100A980023EC1CF06DC09EF06EC09FF06FC0A0F0FC
:100AA80070C0A1F0ADC01BF0AEC01CF0AFC01DF00F
:100AB800B0C01EF0000E1F6E000E206E200E216EBC
:100AC800410E226EA0EC0EF01BC0ADF01CC0AEF0C3
:100AD8001DC0AFF01EC0B0F000018507D8A0860782
:100AE8009C4B9D2B92519C5D9D51800A836F935125
:100AF800800A8359D8B083EF05F085EF05F093EFAE
:100B080005F0ACBF91EF05F0AC5109E14B0EAB5DC0
:100B1800D8A091EF05F093EF05F091EF04F0000EE7
:100B28009D6F4F0E9C6F000E9C25D96E010E9D2166
:100B3800DA6EDF6A000E836F010E846FAB51835F3C
:100B4800AC51845B9C5183251B6E9D5184211C6E86
:100B5800000E1D6E010E1E6EABC01FF0ACC020F063
:100B6800FBEC1BF00001AB519C5DAB6FAC519D5988
:100B7800AC6FA651D8A4C3EF05F0C6EF05F0010E7F
:100B8800C7EF05F0000E9C6F9D6BA651D8B4CFEF50
:100B980005F0D1EF05F0DCEF05F0AB07D8A0AC0706
:100BA800000EAB25D96E010EAC21DA6EA6C0DFFFB0
:100BB8009C51965F9D51975B7DC060F0000EAB2500
:100BC800616F010EAC21626F96C063F097C064F04C
:100BD80033EC1BF012001E50800B276E1E501E2493
:100BE800296E1DAEFAEF05F0FCEF05F0FDEF05F0FC
:100BF80029802950D8B403EF06F005EF06F019EF65
:100C080006F02928D8A40BEF06F00DEF06F015EF33
:100C180006F0000E1B6E000E1C6E000E1D6E000E00
:100C28001E6E1D8E1E6A21EF06F0000E1B6E000E52
:100C38001C6E000E1D6E000E1E6E2250800B286E5C
:100C480027502818D8B42BEF06F02DEF06F02EEF1A
:100C580006F0278C22502224286E21AE36EF06F0AB
:100C680038EF06F039EF06F028802850D8B43FEF67
:100C780006F041EF06F055EF06F02828D8A447EF14
:100C880006F049EF06F051EF06F0000E1F6E000E59
:100C9800206E000E216E000E226E218E226A5DEFFC
:100CA80006F0000E1F6E000E206E000E216E000E64
:100CB800226E2950285CD8B064EF06F066EF06F083
:100CC8008DEF06F027AC6BEF06F06DEF06F06FEFD7
:100CD80006F0800E271A29C02AF028C029F02AC059
:100CE80028F01BC02AF01FC01BF02AC01FF01CC030
:100CF8002AF020C01CF02AC020F01DC02AF021C014
:100D08001DF02AC021F01EC02AF022C01EF02AC001
:100D180022F02A6A295028C023F0246A235E000E94
:100D2800245A24BEA1EF06F0245009E11A0E235CD0
:100D3800D8A0A1EF06F0A3EF06F0DAEF06F01B50FB
:100D48001C101D101E10D8A4ACEF06F0AFEF06F073
:100D5800010EB0EF06F0000E2A6E000E1B6E000E9C
:100D68001C6E000E1D6E000E1E6E28C029F0E3EFEB
:100D780006F02AA0C2EF06F0C4EF06F0CAEF06F0AC
:100D8800D8902A3001092A6ECCEF06F0D8902A3282
:100D98001BA0D1EF06F0D3EF06F0D4EF06F02A8EB1
:100DA8001E341E321D321C321B32292A2850295C5F
:100DB800D8A0E1EF06F0E3EF06F0BDEF06F027BCA0
:100DC800E8EF06F0EAEF06F02AEF07F02950D8A47A
:100DD800F0EF06F0F2EF06F0FCEF06F0000E1B6EE7
:100DE800000E1C6E000E1D6E000E1E6E49EF08F000
:100DF8001F501B2620501C2221501D2222501E222B
:100E08001EA009EF07F00BEF07F0B7EF07F02AA0D5
:100E180010EF07F012EF07F018EF07F0D8902A301C
:100E280001092A6E1AEF07F0D8902A321BA01FEF8B
:100E380007F021EF07F022EF07F02A8E1E341E324A
:100E48001D321C321B32292AB7EF07F01F501B5CDA
:100E580020501C5821501D581E50800A236E2250C5
:100E6800800A2358D8B03BEF07F03DEF07F068EF52
:100E780007F01B501F5C236E1C502058246E1D5019
:100E88002158256E1E502258266EFF0E23241B6EF5
:100E9800FF0E24201C6EFF0E25201D6EFF0E26203F
:100EA8001E6E800E271A2A6C2A50D8A45EEF07F00F
:100EB80060EF07F070EF07F0010E1B26000E1C22F2
:100EC8001D221E2270EF07F01F501B5E20501C5A77
:100ED80021501D5A22501E5A1B501C101D101E1046
:100EE800D8A479EF07F07BEF07F0B0EF07F02A50AE
:100EF800D8A481EF07F083EF07F0B0EF07F0000EFA
:100F08001B6E000E1C6E000E1D6E000E1E6E49EF4D
:100F180008F0D8901B361C361D361E362AAE97EFC1
:100F280007F099EF07F09AEF07F01B802AA09FEFD0
:100F380007F0A1EF07F0A5EF07F0D8802A36A7EF52
:100F480007F0D8902A362950D8B4ADEF07F0AFEFA4
:100F580007F0B0EF07F029061DAEB5EF07F0B7EFC1
:100F680007F08DEF07F0286A2AAEBDEF07F0BFEF54
:100F780007F0D7EF07F02AC023F07F0E2316D8B466
:100F8800C8EF07F0CAEF07F0CEEF07F0010E286EA2
:100F9800D7EF07F01BA0D3EF07F0D5EF07F0D7EF97
:100FA80007F0CAEF07F02850D8B4DDEF07F0DFEFFD
:100FB80007F00AEF08F0010E1B26000E1C221D2266
:100FC8001E221EA0EAEF07F0ECEF07F00AEF08F088
:100FD8001BC023F01CC024F01DC025F01EC026F045
:100FE8002634263225322432233223C01BF024C073
:100FF8001CF025C01DF026C01EF02928D8B407EF24
:1010080008F009EF08F00AEF08F0292A2928D8B4CF
:1010180010EF08F012EF08F01AEF08F02950D8A4E2
:1010280018EF08F01AEF08F02BEF08F0000E1B6E0F
:10103800000E1C6E000E1D6E000E1E6E2950D8A4E8
:1010480028EF08F02AEF08F02BEF08F0276A29A00C
:1010580030EF08F032EF08F035EF08F01D8E36EF6C
:1010680008F01D9ED89029301E6E27AE3EEF08F07E
:1010780040EF08F041EF08F01E8E1BC01BF01CC0AB
:101088001CF01DC01DF01EC01EF012008A96000E36
:101098001C6E010E1B6E43EC1DF0040E1E6E0C0E32
:1010A8001D6E340EE82EFED71D2EFCD71E2EFAD745
:1010B800000E1C6E110E1B6E43EC1DF0060E1E6E0C
:1010C8002D0E1D6EA70EE82EFED71D2EFCD71E2E48
:1010D800FAD700008A96000E1C6EB10E1B6E43EC08
:1010E8001DF08A86000E1C6E010E1B6E2FEC1DF083
:1010F800000E1C6E2C0E1B6E2FEC1DF0000E1C6ECD
:101108002D0E1B6E2FEC1DF08A96000E1C6EB20E73
:101118001B6E43EC1DF08A86000E1C6E010E1B6EC2
:101128002FEC1DF0000E1C6E2C0E1B6E2FEC1DF00C
:10113800000E1C6E2D0E1B6E2FEC1DF08A96000EF5
:101148001C6EB30E1B6E43EC1DF08A86000E1C6EDF
:10115800010E1B6E2FEC1DF0000E1C6E2C0E1B6E6C
:101168002FEC1DF0000E1C6E2D0E1B6E2FEC1DF0CB
:10117800000E1C6E010E1B6E2FEC1DF0000E1C6E77
:101188002C0E1B6E2FEC1DF0000E1C6E2D0E1B6E10
:101198002FEC1DF08A96000E1C6EB40E1B6E43ECED
:1011A8001DF08A86000E1C6E070E1B6E2FEC1DF0BC
:1011B8008A96000E1C6EC00E1B6E43EC1DF08A86CC
:1011C800000E1C6E020E1B6E2FEC1DF0000E1C6E26
:1011D800020E1B6E2FEC1DF0000E1C6E840E1B6E93
:1011E8002FEC1DF08A96000E1C6EC10E1B6E43EC90
:1011F8001DF08A86000E1C6EC50E1B6E2FEC1DF0AE
:101208008A96000E1C6EC20E1B6E43EC1DF08A8679
:10121800000E1C6E0A0E1B6E2FEC1DF0000E1C6ECD
:10122800000E1B6E2FEC1DF08A96000E1C6EC30E6E
:101238001B6E43EC1DF08A86000E1C6E8A0E1B6E18
:101248002FEC1DF0000E1C6E2A0E1B6E2FEC1DF0ED
:101258008A96000E1C6EC40E1B6E43EC1DF08A8627
:10126800000E1C6E8A0E1B6E2FEC1DF0000E1C6EFD
:10127800EE0E1B6E2FEC1DF08A96000E1C6EC50E2E
:101288001B6E43EC1DF08A86000E1C6E0E0E1B6E44
:101298002FEC1DF08A96000E1C6E200E1B6E43EC80
:1012A8001DF0000E1C6E3A0E1B6E43EC1DF08A8674
:1012B800000E1C6E050E1B6E2FEC1DF08A96000E9C
:1012C8001C6E360E1B6E43EC1DF08A86000E1C6EDB
:1012D800580E1B6E2FEC1DF0340E1D6EF20EE82E0C
:1012E800FED71D2EFCD78A96000E1C6EE00E1B6ED4
:1012F80043EC1DF08A86000E1C6E020E1B6E2FEC4E
:101308001DF0000E1C6E1C0E1B6E2FEC1DF0000E47
:101318001C6E070E1B6E2FEC1DF0000E1C6E120EBD
:101328001B6E2FEC1DF0000E1C6E370E1B6E2FEC83
:101338001DF0000E1C6E320E1B6E2FEC1DF0000E01
:101348001C6E290E1B6E2FEC1DF0000E1C6E2D0E50
:101358001B6E2FEC1DF0000E1C6E290E1B6E2FEC61
:101368001DF0000E1C6E250E1B6E2FEC1DF0000EDE
:101378001C6E2B0E1B6E2FEC1DF0000E1C6E390E12
:101388001B6E2FEC1DF0000E1C6E000E1B6E2FEC5A
:101398001DF0000E1C6E010E1B6E2FEC1DF0000ED2
:1013A8001C6E030E1B6E2FEC1DF0000E1C6E100E33
:1013B8001B6E2FEC1DF08A96000E1C6EE10E1B6E44
:1013C80043EC1DF08A86000E1C6E030E1B6E2FEC7C
:1013D8001DF0000E1C6E1D0E1B6E2FEC1DF0000E76
:1013E8001C6E070E1B6E2FEC1DF0000E1C6E060EF9
:1013F8001B6E2FEC1DF0000E1C6E2E0E1B6E2FECBC
:101408001DF0000E1C6E2C0E1B6E2FEC1DF0000E36
:101418001C6E290E1B6E2FEC1DF0000E1C6E2D0E7F
:101428001B6E2FEC1DF0000E1C6E2E0E1B6E2FEC8B
:101438001DF0000E1C6E2E0E1B6E2FEC1DF0000E04
:101448001C6E370E1B6E2FEC1DF0000E1C6E3F0E2F
:101458001B6E2FEC1DF0000E1C6E000E1B6E2FEC89
:101468001DF0000E1C6E000E1B6E2FEC1DF0000E02
:101478001C6E020E1B6E2FEC1DF0000E1C6E100E63
:101488001B6E2FEC1DF08A96000E1C6E130E1B6E41
:1014980043EC1DF0340E1D6EF20EE82EFED71D2E05
:1014A800FCD7000E1C6E290E1B6E43EC1DF0040EBB
:1014B8001E6E0C0E1D6E340EE82EFED71D2EFCD7A8
:1014C8001E2EFAD78A96000E1C6EC50E1B6E43ECB4
:1014D8001DF08A86000E1C6E0E0E1B6E2FEC1DF082
:1014E80012008A96000E1C6E010E1B6E43EC1DF056
:1014F800040E1E6E0C0E1D6E340EE82EFED71D2E29
:10150800FCD71E2EFAD7000E1C6E110E1B6E43EC74
:101518001DF0060E1E6E2D0E1D6EA70EE82EFED7B0
:101528001D2EFCD71E2EFAD700008A96000E1C6EC0
:10153800B10E1B6E43EC1DF08A86000E1C6E010E68
:101548001B6E2FEC1DF0000E1C6E2C0E1B6E2FEC6C
:101558001DF0000E1C6E2D0E1B6E2FEC1DF08A96D2
:10156800000E1C6EB20E1B6E43EC1DF08A86000E38
:101578001C6E010E1B6E2FEC1DF0000E1C6E2C0E47
:101588001B6E2FEC1DF0000E1C6E2D0E1B6E2FEC2B
:101598001DF08A96000E1C6EB30E1B6E43EC1DF0F8
:1015A8008A86000E1C6E010E1B6E2FEC1DF0000EBD
:1015B8001C6E2C0E1B6E2FEC1DF0000E1C6E2D0EDB
:1015C8001B6E2FEC1DF0000E1C6E010E1B6E2FEC17
:1015D8001DF0000E1C6E2C0E1B6E2FEC1DF0000E65
:1015E8001C6E2D0E1B6E2FEC1DF08A96000E1C6EC5
:1015F800B40E1B6E43EC1DF08A86000E1C6E070E9F
:101608001B6E2FEC1DF08A96000E1C6EC00E1B6E12
:1016180043EC1DF08A86000E1C6E020E1B6E2FEC2A
:101628001DF0000E1C6E020E1B6E2FEC1DF08A962C
:10163800000E1C6EC10E1B6E43EC1DF08A86000E58
:101648001C6EC50E1B6E2FEC1DF08A96000E1C6ECC
:10165800C20E1B6E43EC1DF08A86000E1C6E0A0E2D
:101668001B6E2FEC1DF0000E1C6E000E1B6E2FEC77
:101678001DF08A96000E1C6EC30E1B6E43EC1DF007
:101688008A86000E1C6E8A0E1B6E2FEC1DF0000E53
:101698001C6E2A0E1B6E2FEC1DF08A96000E1C6E17
:1016A800C40E1B6E43EC1DF08A86000E1C6E8A0E5B
:1016B8001B6E2FEC1DF0000E1C6EEE0E1B6E2FEC39
:1016C8001DF08A96000E1C6E200E1B6E43EC1DF05A
:1016D800000E1C6E3A0E1B6E43EC1DF08A86000E3F
:1016E8001C6E050E1B6E2FEC1DF08A96000E1C6EEC
:1016F800360E1B6E43EC1DF08A86000E1C6EF40E2F
:101708001B6E2FEC1DF0340E1D6EF20EE82EFED768
:101718001D2EFCD78A96000E1C6EE00E1B6E43EC45
:101728001DF08A86000E1C6E020E1B6E2FEC1DF03B
:10173800000E1C6E1C0E1B6E2FEC1DF0000E1C6E96
:10174800070E1B6E2FEC1DF0000E1C6E120E1B6E8A
:101758002FEC1DF0000E1C6E370E1B6E2FEC1DF0CB
:10176800000E1C6E320E1B6E2FEC1DF0000E1C6E50
:10177800290E1B6E2FEC1DF0000E1C6E2D0E1B6E1D
:101788002FEC1DF0000E1C6E290E1B6E2FEC1DF0A9
:10179800000E1C6E250E1B6E2FEC1DF0000E1C6E2D
:1017A8002B0E1B6E2FEC1DF0000E1C6E390E1B6EDF
:1017B8002FEC1DF0000E1C6E000E1B6E2FEC1DF0A2
:1017C800000E1C6E010E1B6E2FEC1DF0000E1C6E21
:1017D800030E1B6E2FEC1DF0000E1C6E100E1B6E00
:1017E8002FEC1DF08A96000E1C6EE10E1B6E43EC6A
:1017F8001DF08A86000E1C6E030E1B6E2FEC1DF06A
:10180800000E1C6E1D0E1B6E2FEC1DF0000E1C6EC4
:10181800070E1B6E2FEC1DF0000E1C6E060E1B6EC5
:101828002FEC1DF0000E1C6E2E0E1B6E2FEC1DF003
:10183800000E1C6E2C0E1B6E2FEC1DF0000E1C6E85
:10184800290E1B6E2FEC1DF0000E1C6E2D0E1B6E4C
:101858002FEC1DF0000E1C6E2E0E1B6E2FEC1DF0D3
:10186800000E1C6E2E0E1B6E2FEC1DF0000E1C6E53
:10187800370E1B6E2FEC1DF0000E1C6E3F0E1B6EFC
:101888002FEC1DF0000E1C6E000E1B6E2FEC1DF0D1
:10189800000E1C6E000E1B6E2FEC1DF0000E1C6E51
:1018A800020E1B6E2FEC1DF0000E1C6E100E1B6E30
:1018B8002FEC1DF08A96000E1C6E130E1B6E43EC67
:1018C8001DF0340E1D6EF20EE82EFED71D2EFCD72D
:1018D800000E1C6E290E1B6E43EC1DF0040E1E6ECE
:1018E8000C0E1D6E340EE82EFED71D2EFCD71E2EB4
:1018F800FAD78A96000E1C6EC50E1B6E43EC1DF0BF
:101908008A86000E1C6E0E0E1B6E2FEC1DF0120048
:101918001E50800B0001606F1E501E24666F1DAEA6
:1019280098EF0CF09AEF0CF09BEF0CF06681665183
:10193800D8B4A1EF0CF0A3EF0CF0B6EF0CF06629C9
:10194800D8A4A9EF0CF0ABEF0CF0B3EF0CF0000E3D
:101958001B6E000E1C6E000E1D6E000E1E6E1D8E80
:10196800BEEF0CF0000E1B6E000E1C6E000E1D6EFE
:10197800000E1E6E2250800B601B22502224616FC5
:1019880021AEC9EF0CF0CBEF0CF0CCEF0CF061817D
:101998006151D8B4D2EF0CF0D4EF0CF0E7EF0CF0B3
:1019A8006129D8A4DAEF0CF0DCEF0CF0E4EF0CF0CE
:1019B800000E1F6E000E206E000E216E000E226EAD
:1019C800218EEFEF0CF0000E1F6E000E206E000E41
:1019D800216E000E226E6151D8B4F5EF0CF0F7EFCE
:1019E8000CF0FFEF0CF06651D8A4FDEF0CF0FFEF00
:1019F8000CF009EF0DF0000E1B6E000E1C6E000EB1
:101A08001D6E000E1E6E9FEF0EF021501B02F3CFCD
:101A18006BF0F4CF6CF06B51626F636B646B656B4A
:101A28006C51676F686B696B6A6B20501C02F3CF4F
:101A38006BF0F4CF6CF06B516227000E63236423C4
:101A480065236C516727000E682369236A231F509A
:101A58001D02F3CF6BF0F4CF6CF06B516227000ED0
:101A68006323642365236C516727000E6823692369
:101A78006A2364C065F063C064F062C063F0626B9F
:101A88001F501C02F3CF6BF0F4CF6CF06B51622740
:101A98006C516323000E6423000E652320501B0243
:101AA800F3CF6BF0F4CF6CF06B5162276C5163236A
:101AB800000E6423000E652364C065F063C064F003
:101AC80062C063F0626B1F501B02F3CF6BF0F4CF60
:101AD8006CF06B5162276C516323000E6423000E77
:101AE800652321501C02F3CF6BF0F4CF6CF06B51DF
:101AF80067276C516823000E6923000E6A23205063
:101B08001D02F3CF6BF0F4CF6CF06B5167276C516B
:101B18006823000E6923000E6A2321501D02F3CFAB
:101B28006BF0F4CF6CF06B51236E6C51246E256A08
:101B3800266A25C026F024C025F023C024F0236A95
:101B480023506727245068232550692326506A2389
:101B580062C023F063C024F064C025F065C026F09D
:101B6800190EBCEF0DF0D8902632253224322332DC
:101B7800E82EB7EF0DF0235067272450682325502F
:101B8800692326506A2364C065F063C064F062C0AC
:101B980063F0626B615166C023F0246A2326000E4D
:101BA8002422820E23246B6FFF0E24206C6FF2EF29
:101BB8000DF0D8906737683769376A3765AFE7EF50
:101BC8000DF0E9EF0DF0EAEF0DF06781D89062377C
:101BD8006337643765376B07D8A06C0769AFF7EFD1
:101BE8000DF0F9EF0DF0DDEF0DF0616B65AFFFEF74
:101BF8000DF001EF0EF025EF0EF0FF0E6215236ECB
:101C0800FF0E6315246EFF0E6415256E7F0E651595
:101C1800266E2350241025102610D8B416EF0EF087
:101C280018EF0EF01CEF0EF0010E616F25EF0EF0AD
:101C380067A121EF0EF023EF0EF025EF0EF018EF5D
:101C48000EF06151D8B42BEF0EF02DEF0EF051EFDE
:101C58000EF0010E6727000E682369236A236AA124
:101C680038EF0EF03AEF0EF051EF0EF067C023F0A8
:101C780068C024F069C025F06AC026F026342632F0
:101C880025322432233223C067F024C068F025C0EF
:101C980069F026C06AF06B4B6C2B6CBF5CEF0EF0E2
:101CA8006C5108E16B29D8A05CEF0EF05EEF0EF0E6
:101CB80068EF0EF0000E676F000E686F800E696F98
:101CC8007F0E6A6F95EF0EF06CBF75EF0EF06C51DA
:101CD80006E16B05D8B073EF0EF075EF0EF080EFEC
:101CE8000EF0000E676F000E686F000E696F000E31
:101CF8006A6F606B95EF0EF06BC066F0FF0E6717AA
:101D0800FF0E68177F0E6917000E6A1766A18FEF1E
:101D18000EF091EF0EF092EF0EF0698FD8906631C9
:101D28006A6F60516A1367C01BF068C01CF069C015
:101D38001DF06AC01EF012001E50800B0001646F77
:101D48001E501E246B6F1DAEACEF0EF0AEEF0EF002
:101D5800AFEF0EF06B816B51D8B4B5EF0EF0B7EF63
:101D68000EF0CBEF0EF06B29D8A4BDEF0EF0BFEF4D
:101D78000EF0C7EF0EF0000E1B6E000E1C6E000E6C
:101D88001D6E000E1E6E1D8E1E6AD3EF0EF0000E25
:101D98001B6E000E1C6E000E1D6E000E1E6E225075
:101DA800800B641B225022246C6F21AEDEEF0EF0F4
:101DB800E0EF0EF0E1EF0EF06C816C51D8B4E7EF74
:101DC8000EF0E9EF0EF0FDEF0EF06C29D8A4EFEF5E
:101DD8000EF0F1EF0EF0F9EF0EF0000E1F6E000E90
:101DE800206E000E216E000E226E218E226A05EFF3
:101DF8000FF0000E1F6E000E206E000E216E000EFA
:101E0800226E1F50201021102210D8A40EEF0FF0C0
:101E180010EF0FF028EF0FF0000E1B6E000E1C6E77
:101E2800000E1D6E000E1E6E800E1D127F0E1E12FD
:101E380064511E121BC01BF01CC01CF01DC01DF0FD
:101E48001EC01EF068EF10F06B51D8A42EEF0FF0F3
:101E580030EF0FF03AEF0FF0000E1B6E000E1C6E05
:101E6800000E1D6E000E1E6E68EF10F06C516BC0F8
:101E780023F0246A235E000E245A7F0E2324656F04
:101E8800000E2420666F1BC060F01CC061F01DC0EE
:101E980062F01EC063F0000E1B6E000E1C6E000E7A
:101EA8001D6E000E1E6E000E676F000E686F000E2E
:101EB800696F000E6A6F6C6B9AEF0FF06C51D8B4B3
:101EC80068EF0FF06AEF0FF081EF0FF0D8906037EE
:101ED800613762376337D8901B361C361D361E367D
:101EE8006AAF79EF0FF07BEF0FF07CEF0FF01B80FC
:101EF800D8906737683769376A371F50605D205058
:101F080061592150625922506359D8A08EEF0FF0C1
:101F180090EF0FF099EF0FF06A8D1F50605F20501F
:101F2800615B2150625B2250635B6C2B190E6C6500
:101F3800A0EF0FF0A2EF0FF062EF0FF06051611108
:101F480062116311D8B4ABEF0FF0ADEF0FF0C5EF2E
:101F58000FF06781C5EF0FF0D8901B361C361D3681
:101F68001E366AAFBAEF0FF0BCEF0FF0BDEF0FF0FF
:101F78001B80D8906737683769376A376507D8A0F4
:101F880066071DAECAEF0FF0CCEF0FF0B0EF0FF001
:101F98006C6B6AAFD2EF0FF0D4EF0FF0F8EF0FF0E1
:101FA800FF0E6715236EFF0E6815246EFF0E691568
:101FB800256E7F0E6A15266E2350241025102610D4
:101FC800D8B4E9EF0FF0EBEF0FF0EFEF0FF0010EE1
:101FD8006C6FF8EF0FF01BA0F4EF0FF0F6EF0FF0B7
:101FE800F8EF0FF0EBEF0FF06C51D8B4FEEF0FF0F5
:101FF80000EF10F024EF10F0010E1B26000E1C223B
:102008001D221E221EA00BEF10F00DEF10F024EF82
:1020180010F01BC023F01CC024F01DC025F01EC00A
:1020280026F02634263225322432233223C01BF0F0
:1020380024C01CF025C01DF026C01EF0654B662B81
:1020480066BF2FEF10F0665108E16529D8A02FEF81
:1020580010F031EF10F03CEF10F0000E666F65697C
:10206800000E1B6E000E1C6E000E1D6E000E1E6E06
:1020780066BF49EF10F0665106E16505D8B047EF35
:1020880010F049EF10F056EF10F0000E666F000EDA
:10209800656F000E1B6E000E1C6E000E1D6E000E8E
:1020A8001E6E646B65C06BF06BA15DEF10F05FEFA7
:1020B80010F062EF10F01D8E63EF10F01D9ED890A7
:1020C8006B311E6E1CEF0FF012000001B251D96E79
:1020D800DA6ADECFF6FFDDCFF7FF0800F550250AF4
:1020E800D8A479EF10F07BEF10F097EF11F0B25110
:1020F800D96EDA6ADE2A000EDD22000EE86F000EC5
:10210800E76FE7C0EFF0E969EA69B251D96EDA6AB8
:10211800DECFF6FFDDCFF7FF0800F5502E0AD8A472
:1021280098EF10F09AEF10F0AAEF10F0B251D96EB4
:10213800DA6ADE2A000EDD22B2C01BF0B3C01CF042
:1021480082EC19F01BC0E9F01CC0EAF00001B251A2
:10215800D96EDA6ADECFBBF0DDCFBCF0BBC0F6FFCC
:10216800BCC0F7FF0800F550640AD8B4BEEF10F001
:10217800C0EF10F0CEEF10F0BBC0F6FFBCC0F7FF09
:102188000800F550690AD8A4CCEF10F0CEEF10F093
:10219800F1EF10F0B351D96EDA6A020EDF26DF5C78
:1021A800D96EDA6ADECFB6F0DECFB7F0010EBB2506
:1021B800B46F000EBC21B56FB251D96EDA6AB4C0E3
:1021C800DEFFB5C0DDFFB1C067F0B6C068F0B7C0CC
:1021D80069F056EC15F0A8EF11F0B251D96EDA6A31
:1021E800DECFBBF0DDCFBCF0BBC0F6FFBCC0F7FF55
:1021F8000800F5CFBAF00CEF11F0BB4BBC2B1BEF6E
:1022080011F06C0EBA6F1BEF11F0BA6B1BEF11F0E7
:10221800BA514C0AD8B401EF11F02A0AD8B405EF24
:1022280011F00A0AD8B401EF11F009EF11F0BBC0A0
:10223800F6FFBCC0F7FF0800F550660AD8A427EFE0
:1022480011F029EF11F08EEF11F053EF11F0B351A7
:10225800D96EDA6ADFCFB4F0040EDF26B451D96E36
:10226800DA6ADECFB6F0DECFB7F0DECFB8F0DECF79
:10227800B9F05EEF11F0B351D96EDA6ADFCFB4F07E
:10228800040EDF26B451D96EDA6ADECFB6F0DECF9F
:10229800B7F0DECFB8F0DECFB9F05EEF11F0BA518B
:1022A8004C0AD8B43FEF11F0200AD8B42BEF11F044
:1022B8005EEF11F0010EBB25B46F000EBC21B56FA7
:1022C800B251D96EDA6AB4C0DEFFB5C0DDFF82EF65
:1022D80011F0B1C07DF0B6C07EF0B7C07FF0B8C0D5
:1022E80080F0B9C081F0BBC0F6FFBCC0F7FF0800A2
:1022F800F5CF82F0F9EC00F0A8EF11F0BBC0F6FFC3
:10230800BCC0F7FF0800F550660AD8B46DEF11F0AD
:102318008EEF11F00001B251D96EDA6ADE2A000E92
:10232800DD22A8EF11F0B251D96EDA6ADECFF6FFDE
:10233800DDCFF7FF0800F5501B6E1C6AB1C01DF019
:102348002DEC1AF08EEF11F01200D7C079F0D8C03A
:102358007AF0D9C07BF0DAC07CF027C079F028C0C9
:102368007AF029C07BF02AC07CF0810E00016D6FE5
:10237800FF0E6E6F79C06FF07AC070F07BC071F09D
:102388007CC072F0180ECEEF11F0D8907233713312
:1023980070336F33E82EC9EF11F06F516D25776FE9
:1023A800000E6E21786F78BFE3EF11F0785109E1E4
:1023B800170E775DD8A0E3EF11F0E5EF11F0EFEF1E
:1023C80011F027C027F028C028F029C029F02AC01A
:1023D8002AF0B3EF12F078BFF4EF11F0F6EF11F036
:1023E80067EF12F077C06DF0FF0E6E6FFF0E6F6F24
:1023F8007F0E706F000E716F6D6705EF12F00DEFB5
:1024080012F07135713370336F336E336D2F00EF07
:1024180012F06EC073F06FC074F070C075F071C0C8
:1024280076F00001735179156D6F74517A156E6FDE
:1024380075517B156F6F76517C15706F6D516E11EC
:102448006F117011D8A42BEF12F02DEF12F02FEFAF
:1024580012F0E5EF11F079C06DF07AC06EF07BC034
:102468006FF07CC070F0200E3FEF12F0D890703300
:102478006F336E336D33E82E3AEF12F06D516E11F3
:102488006F117011D8B44BEF12F04DEF12F055EFF9
:1024980012F07351792774517A2375517B23765141
:1024A8007C23731D6D6F741D6E6F751D6F6F761DA8
:1024B800706F6D5179176E517A176F517B17705184
:1024C8007C17ABEF12F079C06DF07AC06EF07BC06C
:1024D8006FF07CC070F0200E77EF12F0D890703358
:1024E8006F336E336D33E82E72EF12F06D516E114B
:1024F8006F117011D8A483EF12F085EF12F08FEFEF
:1025080012F0000E796F000E7A6F000E7B6F000ECE
:102518007C6FABEF12F0D89079356D6F7A356E6FAE
:102528007B356F6F7C35706F6D516E116F11701147
:10253800D8B4A1EF12F0A3EF12F0ABEF12F0000E37
:10254800796F000E7A6F800E7B6FBF0E7C6F79C03B
:1025580027F07AC028F07BC029F07CC02AF012004E
:102568002650080DF304376E2650050DF304366E19
:1025780025C01DF036C01EF037C01FF0245099EC5E
:1025880017F03C6A3B6A3C6A040E3C64CEEF12F0DA
:10259800D0EF12F0D2EF12F0ADEF13F03C50020D75
:1025A800F3CF60F0F4CF61F023500A0D1D0EF32431
:1025B8000001626FAC0EF420636F60516225646F96
:1025C80061516321656F64C0F6FF65C0F7FF0800BD
:1025D800F5CF39F0000E286E000E276E98EF13F035
:1025E8003B6A070E3B64FBEF12F0FDEF12F0FFEFC2
:1025F80012F073EF13F039A004EF13F006EF13F0A5
:102608003BEF13F021C01BF022C01CF0E0EC1CF0E3
:10261800386A20EF13F02CC060F0616B60BF61690D
:1026280060C01BF061C01CF057EC1DF02B501B6EF6
:102638001C6A57EC1DF0382A38500001606F616B36
:10264800FF0E2624626F636BFF0E63236051625D89
:102658006351800A646F6151800A6459D8B037EFBA
:1026680013F039EF13F00FEF13F06EEF13F0EBC028
:102678001BF0ECC01CF0E0EC1CF0386A55EF13F0CE
:102688002CC060F0616B60BF616960C01BF061C005
:102698001CF057EC1DF02B501B6E1C6A57EC1DF0FC
:1026A800382A38500001606F616BFF0E2624626F74
:1026B800636BFF0E63236051625D6351800A646F30
:1026C8006151800A6459D8B06CEF13F06EEF13F0C3
:1026D80044EF13F0D89039323B2AF5EF12F0060E8A
:1026E8003B6479EF13F07BEF13F096EF13F03C5057
:1026F800020DF3CF60F0F4CF61F023500A0D1D0EE8
:10270800F324626FAC0EF420636F60516225646F2E
:1027180061516321656F64C0F6FF65C0F7FF08006B
:10272800F5CF39F0274A282A2650606F616B60512F
:10273800275C2850800A626F6151800A6259D8A0CC
:10274800A8EF13F0AAEF13F0F4EF12F03C2AC8EF49
:1027580012F01200116E1150D8B4B5EF13F0B7EFA4
:1027680013F0D9EF13F00CBEBEEF13F0BCEF13F06B
:10277800D9EF13F009C00DF00AC00EF00BC00FF02E
:102788000CC010F00D1E0E1E0F1E101E0D2A000E7E
:102798000E220F2210220DC013F00EC014F00FC02D
:1027A80015F010C016F0E1EF13F009C013F00AC0DD
:1027B80014F00BC015F00CC016F009500A100B10DD
:1027C8000C10D8A4EAEF13F0ECEF13F0F6EF13F0C7
:1027D800000E096E000E0A6E000E0B6E000E0C6ED7
:1027E80087EF14F0960E126E00EF14F0122AD890AC
:1027F8001632153214321332000E13140D6E000EF9
:1028080014140E6E000E15140F6EFE0E1614106EB4
:102818000D500E100F101010D8A415EF14F017EF6C
:1028280014F0FAEF13F025EF14F0122A010E132614
:10283800000E142215221622D890163215321432A0
:102848001332000E13140D6E000E14140E6E000ECB
:1028580015140F6EFF0E1614106E0D500E100F107B
:102868001010D8A43AEF14F03CEF14F019EF14F05C
:1028780044EF14F01206D89013361436153616366F
:1028880015BE49EF14F04BEF14F053EF14F0020E9D
:10289800126051EF14F053EF14F03EEF14F012B041
:1028A80058EF14F05AEF14F05BEF14F0159ED8901F
:1028B800123212C00DF00E6A0F6A106A0DC010F0C5
:1028C8000F6A0E6A0D6A0D5013120E5014120F5033
:1028D8001512105016121150D8B475EF14F077EF86
:1028E80014F07FEF14F00CBE7EEF14F07CEF14F0C0
:1028F8007FEF14F0168E13C009F014C00AF015C04B
:102908000BF016C00CF012009B8CD09E938CF26AD0
:10291800550EA76EAA0EA76E0E01FF910C0EEA6F58
:102928000E0ED36F550EA76EAA0EA76EFF81D26A40
:10293800D16A69EC1DF0020E68EC1BF0000E9CECED
:102948001BF093949396939894800F014869928012
:10295800C00EF26E340E0001D66FF10EE82EFED7CF
:10296800D62FFCD700D08A888A848A96010E15EC67
:102978001DF0939E380ED56ED66AD58E090ECD6E93
:102988009E909D80FD0ECF6EE80ECE6E9494CB681F
:10299800030ECA6E0C0EBA6E0F01529352915299E1
:1029A800CC6ADE0E226EDB0E216E69EC18F0B90ED1
:1029B800216EB10E226E82EC1AF0FF0E0001676FD5
:1029C800E00E666FF00E686FFF0E696F000E6A6F9B
:1029D800640E6B6F020E6C6FC7EC1AF0F40E0001F8
:1029E800C36FDF0EC46FFF0EC56FE3C0C6F0E4C04F
:1029F800C7F0E5C0C8F0E6C0C9F08AEC1CF0FF0ECD
:102A08000001676FE00E666FF40E686F696B000E69
:102A18006A6F780E6B6F020E6C6FC7EC1AF0FF0EC0
:102A28000001676FE00E666FD90E686FFF0E696F61
:102A3800000E6A6F8C0E6B6F020E6C6FC7EC1AF08B
:102A4800F50E0001C36FF40EC46FFF0EC56F2FC0E3
:102A5800C6F030C0C7F08AEC1CF0FF0E0001676FAB
:102A6800E00E666FF50E686F696B460E6A6F8C0E26
:102A78006B6F020E6C6FC7EC1AF0FF0E0001676FE8
:102A8800E00E666FEC0E686FFF0E696F640E6A6F7A
:102A98008C0E6B6F010E6C6FC7EC1AF0E1EF14F03F
:102AA800F7EF00F0000169BF5CEF15F05FEF15F07C
:102AB800010E60EF15F0000E706FEABF68EF15F0B9
:102AC80066EF15F06EEF15F0000E6F6F010E6E6F6A
:102AD80072EF15F0E9C06EF0EAC06FF0E7C06CF075
:102AE800E8C06DF07051D8B47CEF15F07EEF15F0AA
:102AF80095EF15F06C07D8A06D077051D8A487EF33
:102B080015F089EF15F08FEF15F0000E6B6F2B0E97
:102B18006A6F93EF15F0000E6B6F2D0E6A6F6AC027
:102B280070F0000E726F4F0E716F01014F6BCEEF98
:102B380015F07107D8A07207000E7125D96E010E25
:102B48007221DA6E68C01BF069C01CF0000E1E6EA0
:102B58000A0E1D6E2BEC19F01BC021F01CC022F0D0
:102B6800FBEC1CF02150300FDF6E00016E07D8A07F
:102B78006F076C07D8A06D0768C01BF069C01CF010
:102B8800000E1E6E0A0E1D6E08EC18F01BC068F0D1
:102B98001CC069F0000172BFDAEF15F0725108E14C
:102BA8007105D8A0DAEF15F0DCEF15F0F2EF15F0AB
:102BB80068516911D8A4E3EF15F0E5EF15F09DEF22
:102BC80015F06FBFF2EF15F06F5106E16E05D8B042
:102BD800F0EF15F0F2EF15F09DEF15F07051D8B445
:102BE800F8EF15F0FAEF15F005EF16F07107D8A019
:102BF8007207000E7125D96E010E7221DA6E70C04F
:102C0800DFFF67C060F0000E7125616F010E722151
:102C1800626F6CC063F06DC064F033EC1BF012009F
:102C28001D341E34246E2450D8A41DEF16F01FEF57
:102C380016F029EF16F0000E1B6E000E1C6E000E2B
:102C48001D6E000E1E6E96EF16F01BC01FF01CC006
:102C580020F01DC021F01EC022F0200E39EF16F022
:102C6800D8902232213220321F32E82E34EF16F06B
:102C78001F50236E1D8EFF0E1B16FF0E1C16FF0E17
:102C88001D16000E1E16960E245E24BE50EF16F07A
:102C98004EEF16F066EF16F02450800A970FD8B062
:102CA80058EF16F05AEF16F05CEF16F01FEF16F01B
:102CB800D8901E321D321C321B32243E5CEF16F0B7
:102CC8007EEF16F01F0E24646CEF16F06EEF16F010
:102CD80076EF16F01FEF16F0D8901B361C361D360F
:102CE8001E3624062450D8A47CEF16F07EEF16F08A
:102CF80070EF16F02350D8B484EF16F086EF16F074
:102D08008EEF16F01E1E1D1E1C1E1B6C000E1C22B4
:102D18001D221E221BC01BF01CC01CF01DC01DF074
:102D28001EC01EF01200000E00016D15276E000E69
:102D38006E15286E800E6F15296E7F0E70152A6E1F
:102D48002750281029102A10D8A4ADEF16F0AFEF9D
:102D580016F0B7EF16F0000E6D6F000E6E6F000ED6
:102D68006F6F000E706F000E7115276E000E7215D2
:102D7800286E800E7315296E7F0E74152A6E2750E3
:102D8800281029102A10D8A4CCEF16F0CEEF16F090
:102D9800D6EF16F0000E716F000E726F000E736F93
:102DA800000E746F70AFDBEF16F0DDEF16F0E6EF94
:102DB80016F06D6D6E1FD8B06E2B6F1FD8B06F2BCD
:102DC800800E705774AFEBEF16F0EDEF16F0F6EFDC
:102DD80016F0716D721FD8B0722B731FD8B0732B99
:102DE800800E7457000E6D1B000E6E1B000E6F1BBD
:102DF800800E701B000E711B000E721B000E731BE1
:102E0800800E741B71516D5D72516E5973516F59FB
:102E180074517059D8B013EF17F015EF17F018EF79
:102E280017F0D89019EF17F0D8801200DBC025F002
:102E3800DCC026F0DDC027F0DEC028F01BC025F07E
:102E48001CC026F01DC027F01EC028F025C01FF0AA
:102E580026C020F027C021F028C022F0180E3AEF33
:102E680017F0D8902232213220321F32E82E35EF67
:102E780017F01F50236E246A23502410D8A447EF5C
:102E880017F049EF17F069EF17F0D89025341F6E47
:102E98002634206E2734216E2834226E1F502010CD
:102EA80021102210D8A45BEF17F05DEF17F063EF45
:102EB80017F0000E1C6E020E1B6E98EF17F0000E36
:102EC8001C6E030E1B6E98EF17F023282410D8A44D
:102ED80070EF17F072EF17F094EF17F025C01FF09E
:102EE80026C020F027C021F028C022F0090ED89073
:102EF8001F36203621362236E82E7BEF17F01F507A
:102F0800201021102210D8B48CEF17F08FEF17F093
:102F1800010E90EF17F0000E1B6E1C6A98EF17F069
:102F2800000E1C6E040E1B6E1200206E3350D8A4C7
:102F3800A0EF17F0A2EF17F0AFEF17F01D501A0F20
:102F4800406E20283F6E40501F24426E3F501E2482
:102F5800416EC2EF17F03304D8A4B5EF17F0B7EFFE
:102F680017F0C2EF17F02050020F3F6E1DC040F05F
:102F78003F501E24416E40501F24426E8A96000E18
:102F88001C6E2A0E1B6E43EC1DF08A86000E1C6E0A
:102F9800000E1B6E2FEC1DF040C01BF01C6A2FECBE
:102FA8001DF0000E1C6E000E1B6E2FEC1DF042C0B3
:102FB8001BF01C6A2FEC1DF08A96000E1C6E2B0E5F
:102FC8001B6E43EC1DF08A86000E1C6E000E1B6EF5
:102FD8002FEC1DF03FC01BF01C6A2FEC1DF0000EFB
:102FE8001C6E000E1B6E2FEC1DF041C01BF01C6AFE
:102FF8002FEC1DF08A96000E1C6E2C0E1B6E43ECF7
:103008001DF08A948A861200206A1EBE10EF18F0FE
:103018000EEF18F016EF18F01D6C1E1ED8B01E2A01
:10302800010E206E1CBE1DEF18F01BEF18F023EFE9
:1030380018F01B6C1C1ED8B01C2A010E201A000E9A
:10304800226E000E216E1D501E10D8B42EEF18F0FF
:1030580030EF18F058EF18F0010E1F6E38EF18F027
:10306800D8901D361E361F2A1EAE3DEF18F03FEFD2
:1030780018F034EF18F0D890213622361D501B5C1A
:103088001E501C58D8A04BEF18F04DEF18F052EF17
:1030980018F01D501B5E1E501C5A2180D8901E32FD
:1030A8001D321F2E3FEF18F02050D8B45EEF18F0F5
:1030B80060EF18F064EF18F0216C221ED8B0222AB5
:1030C80021C01BF022C01CF012003C6A3B6A21C0E0
:1030D800EBF022C0ECF03350D8A475EF18F077EF7E
:1030E80018F088EF18F0000E1D6EA00E1E6E500E20
:1030F8001F6E000E99EC17F021C01BF022C01CF0C7
:10310800E0EC1CF09FEF18F03304D8A48EEF18F011
:1031180090EF18F09FEF18F0000E1D6E800E1E6ED7
:10312800A00E1F6E000E99EC17F021C01BF022C0F4
:103138001CF0E0EC1CF03C6AC0EF18F03B6AB6EFFC
:1031480018F02CC023F0246A23BE246823C01BF087
:1031580024C01CF057EC1DF02B501B6E1C6A57EC5A
:103168001DF03B2A3B50415CD8B0BDEF18F0BFEFD3
:1031780018F0A5EF18F03C2A3C50425CD8B0C7EFD5
:1031880018F0C9EF18F0A2EF18F01200066A04BE92
:10319800D2EF18F0D0EF18F0D8EF18F0036C041E37
:1031A800D8B0042A010E066E02BEDFEF18F0DDEF7C
:1031B80018F0E5EF18F0016C021ED8B0022A010ED3
:1031C800061A000E086E000E076E03500410D8B4DD
:1031D800F0EF18F0F2EF18F01AEF19F0010E056E83
:1031E800FAEF18F0D89003360436052A04AEFFEF3C
:1031F80018F001EF19F0F6EF18F0D89007360836F6
:103208000350015C04500258D8A00DEF19F00FEFDD
:1032180019F014EF19F00350015E0450025A0780A8
:10322800D89004320332052E01EF19F00650D8B4B5
:1032380020EF19F022EF19F026EF19F0076C081E9D
:10324800D8B0082A07C001F008C002F01200206AAE
:103258001CBE33EF19F031EF19F039EF19F01B6C80
:103268001C1ED8B01C2A010E206E1EBE40EF19F09D
:103278003EEF19F044EF19F01D6C1E1ED8B01E2A3F
:103288001D501E10D8B44BEF19F04DEF19F071EF27
:1032980019F0010E1F6E55EF19F0D8901D361E3625
:1032A8001F2A1EAE5AEF19F05CEF19F051EF19F012
:1032B8001D501B5C1E501C58D8A065EF19F067EF15
:1032C80019F06BEF19F01D501B5E1E501C5AD89058
:1032D8001E321D321F2E5CEF19F02050D8B477EF44
:1032E80019F079EF19F07DEF19F01B6C1C1ED8B09E
:1032F8001C2A1BC01BF01CC01CF01200000E216E03
:10330800000E206E1B50D96EDA6ADECFF6FFDDCFD5
:10331800F7FF0800F5502A0AD8A495EF19F097EF9F
:1033280019F0C0EF19F01B50D96EDA6ADE2A000EC8
:10333800DD221C50D96EDA6A020EDF26DF5CD96EF8
:10334800DA6ADECF20F0DECF21F0D3EF19F00A0ED3
:103358002002F3CF1DF0F4CF1EF02102F3501E26F9
:103368001F501D24206E000E1E20216E1B50D96E8A
:10337800DA6ADE2A000EDD221B50D96EDA6ADECF49
:10338800F6FFDDCFF7FF0800F550D00F1F6E090ECE
:103398001F64D1EF19F0D3EF19F0ABEF19F020C08B
:1033A8001BF021C01CF01200000E1B14236E000E2F
:1033B8001C14246E800E1D14256E7F0E1E14266E9E
:1033C8002350241025102610D8A4EDEF19F0EFEFA4
:1033D80019F0F7EF19F0000E1B6E000E1C6E000EB0
:1033E8001D6E000E1E6E000E1F14236E000E20149C
:1033F800246E800E2114256E7F0E2214266E235013
:10340800241025102610D8A40CEF1AF00EEF1AF08D
:1034180016EF1AF0000E1F6E000E206E000E216EC1
:10342800000E226E1F501B180FE120501C180CE1D3
:1034380021501D1809E122501E18D8B426EF1AF0A1
:1034480028EF1AF02BEF1AF0D8902CEF1AF0D8804A
:1034580012001D50D8B433EF1AF035EF1AF03DEFD3
:103468001AF01D50D8A43BEF1AF03DEF1AF042EFC6
:103478001AF01B5071EC1DF081EF1AF01D50D96E37
:10348800DA6A090ED926DE50DE10D8B44EEF1AF0EB
:1034980050EF1AF069EF1AF01D50D96EDA6A090E6A
:1034A800D9261D50E16EE26A020EE126DE50E65C86
:1034B800E650800A226EDE50800A2258D8B067EFA4
:1034C8001AF069EF1AF081EF1AF01D50D96EDA6A16
:1034D800020ED926DF501E6E1D50D96EDA6ADF50F3
:1034E8001E24D96EDA6A1BC0DFFF1D50D96EDA6A56
:1034F800020ED926DE2A000EDD221200000E1D6EF5
:103508006D0E1E6E630E1F6E0A0E99EC17F0000EFC
:10351800286E000E276E27C023F028C024F0D8900C
:103528002336243623502124256E24502220266E4B
:1035380025C0F6FF26C0F7FF0900F5CF2BF00A00DB
:10354800F5CF2CF02CC023F0246A23BE246823C0B6
:103558001BF024C01CF057EC1DF02B501B6E1C6A8E
:1035680057EC1DF0274A282A28BEC4EF1AF0110E7E
:10357800275C270E2858D8A0C4EF1AF0C6EF1AF017
:103588008FEF1AF01200356A355000016825296E50
:10359800000E69212A6E29C0F6FF2AC0F7FFF86AD3
:1035A8000F0EF76403D00800F55005D0F6CFE1FF01
:1035B800F7CFE2FFE750346E66C021F067C022F013
:1035C80034C023F06AC024F06BC025F06CC026F02C
:1035D800B4EC12F000016C51070DF350020F6A278A
:1035E800352A3450D8A4FBEF1AF0FDEF1AF0C8EFD3
:1035F8001AF01200DC0EF66E3A0EF76E000EF86E38
:1036080000EEF6F010EE04F00900F5CFEEFFE550FD
:10361800E150FAE1E00EF66E3A0EF76E000EF86E23
:103628000900F5CF43F00900F5CF44F001EE00F0B2
:10363800500EEE6AE806FDE100EED7F01F0EEE6AC6
:10364800E806FDE100EE2BF0180EEE6AE806FDE153
:1036580045904592000EF86E000188EF14F00001C5
:1036680064BF3BEF1BF039EF1BF03FEF1BF0000E80
:10367800646F000E636F000E666F000E656F50EF8B
:103688001BF0000E1C6E200E1B6E60C01DF02DEC92
:103698001AF00001654B662B6351655D6651800A1F
:1036A800296E6451800A2958D8A05DEF1BF05FEF9E
:1036B8001BF045EF1BF061C023F062C024F060C02E
:1036C80025F06AEC1CF012001B6E1B50D8A46FEF9B
:1036D8001BF071EF1BF075EF1BF0C698C79C9BEFB2
:1036E8001BF01B04D8A47BEF1BF07DEF1BF081EFD0
:1036F8001BF0C698C78C9BEF1BF0020E1B18D8A4B2
:1037080088EF1BF08AEF1BF08EEF1BF0C688C79C72
:103718009BEF1BF0030E1B18D8A495EF1BF097EF37
:103728001BF09BEF1BF0C688C78C9BEF1BF01200A9
:103738001B6E1B50D8A4A3EF1BF0A5EF1BF0A9EF3D
:103748001BF0C690C692C694C6961B04D8A4AFEFC9
:103758001BF0B1EF1BF0B5EF1BF0C680C692C69404
:10376800C696020E1B18D8A4BCEF1BF0BEEF1BF0C8
:10377800C2EF1BF0C690C682C694C696030E1B18ED
:10378800D8A4C9EF1BF0CBEF1BF0CFEF1BF0C6801E
:10379800C682C694C69612001EBED5EF1BF0D7EFA0
:1037A8001BF0E1EF1BF01BC01BF01CC01CF01DC080
:1037B8001DF01EC01EF0FAEF1BF01BC01FF01CC04E
:1037C80020F01DC021F01EC022F01F1E201E211E49
:1037D800221E1F2A000E2022212222221FC01BF097
:1037E80020C01CF021C01DF022C01EF012001DC018
:1037F80023F01EC024F01BC021F01CC022F015EFDE
:103808001CF023C0D9FF24C0DAFFDF50256E234AFD
:10381800242A21C0D9FF22C0DAFF25C0DFFF214AB0
:10382800222A1F06D8A020061F2806E12028D8A48F
:1038380020EF1CF022EF1CF005EF1CF01200000E28
:103848000001711B000E721B000E731B800E741B8F
:103858006DC01BF06EC01CF06FC01DF070C01EF074
:1038680071C01FF072C020F073C021F074C022F044
:10387800EFEC05F01BC06DF01CC06EF01DC06FF0C2
:103888001EC070F01200BEC0C1F0BFC0C2F056EF3B
:103898001CF0BDC0B1F0C10E0001B26FC0C0B3F0E2
:1038A80069EC10F0C1C0F6FFC2C0F7FF0800F55080
:1038B8000009D8A462EF1CF064EF1CF04DEF1CF077
:1038C800000E0001BE6F000EBD6F1200000E286EC4
:1038D800000E276E79EF1CF026C01BF01C6A25C06D
:1038E8001DF02DEC1AF0274A282A27502324D96ED8
:1038F80028502420DA6EDF50266E2650D8A487EF91
:103908001CF089EF1CF070EF1CF01200C60E0001CD
:10391800CA6FC3C0CBF0000ECE6F000ECD6F000E85
:10392800D56F000ED46FCB0EBD6FC4C0BEF0C5C03E
:10393800BFF0CA0EC06F47EC1CF00001C351CD2583
:10394800D96EDA6ADF6A12001BC01FF01CC020F0B3
:103958001DC0F6FF1EC0F7FF1D4A1E2A1FC0D9FF53
:1039680020C0DAFF1F4A202A0800F5CFDFFFDF500A
:10397800D8A4C1EF1CF0C3EF1CF0ACEF1CF0120090
:103988001B501C101D101E10D8B4CDEF1CF0CFEF2B
:103998001CF0D7EF1CF0000E1B1A000E1C1A000EAC
:1039A8001D1A800E1E1A1BC01BF01CC01CF01DC067
:1039B8001DF01EC01EF012003350D8A4E6EF1CF014
:1039C800E8EF1CF0EEEF1CF01BC02BF01CC02CF035
:1039D800FAEF1CF03304D8A4F4EF1CF0F6EF1CF057
:1039E800FAEF1CF01B1C2B6E1C1C2C6E120022BE46
:1039F80000EF1DF002EF1DF008EF1DF021C021F0CF
:103A080022C022F014EF1DF021C023F022C024F0C0
:103A1800231E241E234A242A23C021F024C022F076
:103A280012001F6E1FC033F01F50D8A41EEF1DF0E8
:103A380020EF1DF024EF1DF04AEC08F02EEF1DF0EA
:103A48001F04D8A42AEF1DF02CEF1DF02EEF1DF057
:103A580075EC0AF012008A941BC0C9FFC7A037EFA3
:103A68001DF039EF1DF032EF1DF09EA63EEF1DF060
:103A780040EF1DF039EF1DF09E968A8412008A945B
:103A88001BC0C9FFC7A04BEF1DF04DEF1DF046EF5F
:103A98001DF09EA652EF1DF054EF1DF04DEF1DF0E6
:103AA8009E968A8412001BC0C9FFC7A05EEF1DF056
:103AB80060EF1DF059EF1DF09EA665EF1DF067EF52
:103AC8001DF060EF1DF09E961200949E938A9398C5
:0C3AD800C68A1200FF0300003FF012003D
:10AC1C000000000000000000000000000000000028
:10AC2C000000000000000000000000000000000018
:10AC3C000000000000000000000000000000000008
:10AC4C0000000000000000000000000000000000F8
:10AC5C0000000000000000000000000000000000E8
:10AC6C0000000000000000000000000000000000D8
:10AC7C0000000000000000000000000000000000C8
:10AC8C0000000000000000000000000000000000B8
:10AC9C0000000000000000000000000000000000A8
:10ACAC000000000000000000000000000000000098
:10ACBC000000000000000000000000000000000088
:10ACCC000000000000000000000000000000000078
:10ACDC000000000000000000000000000000000068
:10ACEC000000000000000000000000000000000058
:10ACFC000000000000000000000000000000000048
:10AD0C000000000000000000000000000000000037
:10AD1C000000000000000000000000000000000027
:10AD2C000000000000000000000000000000000017
:10AD3C000000000000000000000000000000000007
:10AD4C0000000000000000000000000000000000F7
:10AD5C00000000000000000000000000000000FBEC
:10AD6C00000000000000006F0000006F00000028D1
:10AD7C0000FE002800FE00280000007200CB004EF0
:10AD8C00000000460026001000C800C40036004930
:10AD9C00005500220005000000000000000E00001D
:10ADAC000000003C004200810000000000810042D5
:10ADBC00003C00000044002800160028004400104D
:10ADCC00001000FE0010001000B000700000000029
:10ADDC0000000008000800080008000800800000BF
:10ADEC00000000000000000800080008000800082F
:10ADFC00007E008100810081007E0084008200FFC3
:10AE0C000080008000C600A10091008900860042ED
:10AE1C00008100890089007E0008000C000A00FFF8
:10AE2C0000080000009F0091009100F1007E00914D
:10AE3C00009100910072000300010001000100FF6D
:10AE4C00007E009100910091007E000F0009000926
:10AE5C00000900FF0000000000660000000000B4C4
:10AE6C000070000000000000001000280044008268
:10AE7C0000000014001400140014001400000082E0
:10AE8C000044002800100006000100B10009000673
:10AE9C00007E0081009D0095001E00FE0011001137
:10AEAC00001100FE00FF0089008900890076007EF9
:10AEBC00008100810081006600FF0081008100425A
:10AECC00003C007E008900890089008900FF000990
:10AEDC00000900010001007E008100B1009100F129
:10AEEC0000FF00080008000800FF0000000000FF41
:10AEFC000000000000610081008100FF000000FFE5
:10AF0C00001800240042008100FF008000800080B7
:10AF1C00008000FF00020004000200FF00FF00029E
:10AF2C000004000800FF00FF00810081008100FF89
:10AF3C0000FF0009000900090006003E0041005115
:10AF4C00006100BE00FF00090009000900F6007E48
:10AF5C0000810081008100660001000100FF0001FA
:10AF6C000001007F008000800080007F007E008157
:10AF7C00008100810066007F008000F00080007F6F
:10AF8C0000C600280010002800C6008000470028DA
:10AF9C000010000F00C300A10091008900C700FF42
:10AFAC000081008100000000000400080010002057
:10AFBC0000400081008100FF000000000008000438
:10AFCC0000020004000800800080008000800080E7
:10AFDC000000000000030007000C007400920092B7
:10AFEC00007C0080007F0090009000900060007C4E
:10AFFC00008200820082004400600090009000906B
:10B00C00007F007C008A008A008A000C000800FE89
:10B01C00000900010001004C00920092009200FF18
:10B02C0000FF00100008000800F00000000000FD08
:10B03C000000000000600080008000FD000000FEA9
:10B04C00001000280044008200FE00800080008078
:10B05C00000000FE00040008000400FE00FE0030AA
:10B06C000008000800F000FE00820082008200FE52
:10B07C0000FF001200120012000C000C0012001253
:10B08C00001200FF00FE0008000400020004005C37
:10B09C0000920092009200E4000800FF00880088F3
:10B0AC000040007E008000800080007E003E00405A
:10B0BC0000800040003E007E008000F00080007E9A
:10B0CC0000C600280010002800C600800047002899
:10B0DC000010000F00C300A10091008900C7000000
:10B0EC000018007E008100000000000000FF00003E
:10B0FC00000000000081007E00180000007E3F3D33
:10B10C005E03600360036003603D5E7E3F000000F1
:10B11C000000003C1E7E3F000000000000003F814C
:10B12C005EC361C361C361C361BD407E0000008129
:10B13C0040C361C361C361C3613D5E7E3F7E00BCA1
:10B14C0000C001C001C001C0013C1E7E3F7E00BD9D
:10B15C0040C361C361C361C361815E00637E3FBD57
:10B16C005EC361C361C361C361815E003F000001C6
:10B17C000003000300030003003D1E7E3F7E3F3DA5
:10B18C005EC361C361C361C3613D5E7E3F7E00BD32
:10B19C0020C361C361C361C3613D5E7E3F0000009B
:10B1AC00000000000000000000000000002421242A
:10B1BC00212421242124212421242124212421245B
:10B1CC00212421242124212421242124212421244B
:10B1DC00212421242124212421242124212421243B
:10B1EC00212421242124212421242124212421242B
:10B75C00212421242124212421012101210121241E
:10B76C0021242124212421242124212421242124A5
:10B77C002124212421242124212421242124212495
:10B78C002124212421242124212421242124212485
:10B79C002124212421242124212421242124212475
:10B7AC002124212421242124212421242124212465
:10B7BC0021242124212421242124210121012101BE
:10B7CC002124212421242124212421242124212445
:10B7DC002124212421242124212421242124212435
:10B7EC002124212421242124212421242124212425
:10B7FC002124212421242124212421242124212415
:10B80C002124212421242124212421242124212404
:10B81C00212421242124212421242125214321C137
:10B82C0062C5EEC5EEC5EEC16243214321452145FB
:10B83C0021242124212421252125212521242124D1
:10B84C0021242124212421242124212421242124C4
:10B85C0021242124212421242124212421242124B4
:10B86C002124212421242143212421242124212485
:10B87C002124212521242145214521242125210173
:10B88C00214294C5EEC5EE64BDC16243212421243E
:10B89C002124212421242124212421242124212474
:10B8AC002124212421242124212421242124212464
:10B8BC002124212421242124212421242124212454
:10B8CC002124212421242124212421242124212444
:10B8DC002124212421242124212421242124212434
:10B8EC002143214321C162E1FEE1FEC5EEE1FEE10F
:10B8FC00FEC162242101210121012101210121012B
:10B90C002101210121242124212421242124212449
:10B91C0021242124212421242124212421242124F3
:10B92C0021242124212421242124212421252145C1
:10B93C002125214321012101210121012101210185
:10B94C0021012101210121C5EEE1FEE1FEC5EEE15F
:10B95C00FEE1FEC16224212421242125212421245D
:10B96C0021242124212421242124212421242124A3
:10B97C002124212421242124212421242124212493
:10B98C002124212421242124212421242124212483
:10B99C002124212421242124212421242124212473
:10B9AC0021242124212421242143210121C5EEE13C
:10B9BC00FEC16201214294E1FEC5EE012164BDC5C8
:10B9CC00EEC5EEC5EEC5EEC5EEC5EE4294012124E2
:10B9DC002124212421242124212421242124212433
:10B9EC002124212421242124212421242124212423
:10B9FC002124212421242124214521E119C5EEC52E
:10BA0C00EEC5EEC5EEC5EEC5EEC5EEC162E119E1BF
:10BA1C00FEC5EEE1194321C5EEE1FEC5EE01214361
:10BA2C0021242124212421242124212421242124E2
:10BA3C0021242124212421242124212421242124D2
:10BA4C0021242124212421242124212421242124C2
:10BA5C0021242124212421242124212421242124B2
:10BA6C0021242124212421242124212421242124A2
:10BA7C002101210121C5EEE1FE012145214321E1F6
:10BA8C00FEC5EE012164BDE1FEE1FEE1FEE1FEE159
:10BA9C00FEE1FEC5EE0121242124212421242124B0
:10BAAC002124212421242124212421242124214343
:10BABC002143212421242124212421242124212433
:10BACC00214521C162E1FEE1FEE1FEE1FEE1FEE184
:10BADC00FEE1FEC162C162E1FE64BD01212421C10F
:10BAEC0062E1FEC5EE0121242143212421242124DD
:10BAFC002124212421242124212421242124212412
:10BB0C002124212421242124212421242124212401
:10BB1C0021242124212421242124212421242124F1
:10BB2C0021242124212421242124212421242124E1
:10BB3C0021242124212421242143210121C5EEE1AA
:10BB4C00FE43214521E119E1FEC5EE012164BDE171
:10BB5C00FEE1FEE1FEE1FEE1FEE1FEC5EE01212487
:10BB6C002124212421242124212421242143212482
:10BB7C002124212421242143214321242124212453
:10BB8C0021242124212421252145214294E1FEE177
:10BB9C00FEE1FEE1FEE1FEE1FEE1FEC162C162E119
:10BBAC00FEC5EE012101214294E1FEC5EE012124E6
:10BBBC002143214321242124212421242124212413
:10BBCC002124212421242124212421242124212441
:10BBDC002124212421242124212421242124212431
:10BBEC002124212421242124212421242124212421
:10BBFC002124212421242124212421242124212411
:10BC0C002145212421C5EEE1FEC5EE4294E1FEE181
:10BC1C00FE64BD0121C162C162C162C162C162E147
:10BC2C00FEE1FEC5EE01212421242124212421241E
:10BC3C0021242124212421242143212421242124B1
:10BC4C0021252125212521242124212421242125BC
:10BC5C002145214294E1FEE1FE4294C162C162C1E0
:10BC6C0062C16243214321C5EEE1FE64BD4294E111
:10BC7C00FEE1FEC5EE0121242143212421242124AF
:10BC8C002124212421242124212421242124212480
:10BC9C002124212421242124212421242124212470
:10BCAC002124212421242124212421242124212460
:10BCBC002124212421242124212421242124212450
:10BCCC00212421242124212421242124210121C5C2
:10BCDC00EEE1FEE1FEE1FEC5EE0121242125212449
:10BCEC0021242125210121C5EEE1FEC5EE012124EF
:10BCFC002124212421242124212421242124210133
:10BD0C0021E1194294C162012143212521252124DD
:10BD1C0021242124212421252145214294E1FEE1E5
:10BD2C00FEC162012124212521252143212421C189
:10BD3C0062C5EEE1FEE1FEE1FEC5EE012125212406
:10BD4C0021252125212421242124212421242124BD
:10BD5C0021242124212421242124212421242124AF
:10BD6C00212421242124212421242124212421249F
:10BD7C00212421242124212421242124212421248F
:10BD8C00212421242124212421242124212421247F
:10BD9C00212421252143210121C1624294C1620148
:10BDAC00214521242124212421242124210121C5C0
:10BDBC00EEE1FEC5EE01212421242124212421249D
:10BDCC002124212421432164BDE1FEE1FEE1FEC5D5
:10BDDC00EEC1622421252124212421242124212582
:10BDEC002145214294E1FEE1FEC16201212421247E
:10BDFC002125212421252143210121C162C162E198
:10BE0C001901212421242124212421242124212429
:10BE1C0021242124212421242124212421242125ED
:10BE2C0021242124212421242124212421242124DE
:10BE3C0021242124212421242124212421242124CE
:10BE4C0021252124212421252124212421242124BC
:10BE5C0021242124212421242124212421242124AE
:10BE6C002145214521452145212421242124212519
:10BE7C0021252124214321C5EEE1FEC5EE0121241B
:10BE8C0021242124212421242124212421C162E1E3
:10BE9C00FEE1FE429464BDE1FEC5EE432125212462
:10BEAC0021242124212421252145214294E1FEE154
:10BEBC00FEC1624321242124212421242145212453
:10BECC0021242145214521242124212421242124FC
:10BEDC00212421242124212421242124212421430F
:10BEEC0021432124212421252124212421242124FE
:10BEFC00212421242124212421242124212421240E
:10BF0C0021242124212421242125212421242124FC
:10BF1C0021242124212421242124212421242124ED
:10BF2C0021242124212421242124212421452124BC
:10BF3C00212421242124212521252124214321C50B
:10BF4C00EEE1FEC5EE01212421242124212421240B
:10BF5C0021432124214294E1FE64BD0121C162C52B
:10BF6C00EEC5EEE1192421242124212421242125AC
:10BF7C002145214294E1FEE1FEC1624321242124AA
:10BF8C00212421242145212421242145212421243B
:10BF9C00212421242124212421242124212421246D
:10BFAC00212421242124212421432125212521253B
:10BFBC00212521242124212421242124212421244C
:10BFCC00212421242124212421242124212421243D
:10BFDC00212421432124212421242124212421240E
:10BFEC00212421242124212421242124212421241D
:10BFFC00212421242124212421242124212421250C
:10C00C0021252124214321C5EEE1FEC5EE01212489
:10C01C002124212421242124214321252164BDE133
:10C02C00FEC1622421432164BDE1FEE119242124D7
:10C03C0021242124212421252145214294E1FEE1C2
:10C04C00FEC16243212421242124212421452145A0
:10C05C002145214521452124212421242124212449
:10C06C00212421242124212421242124212521457A
:10C07C00212421432125212521252124212421246A
:10C08C00212421242124212421242124212421247C
:10C09C002124212421242124210121E119C162C15F
:10C0AC0062E1190121242124212421242124212489
:10C0BC00212421242124212421242124212421244C
:10C0CC00212421242124212521252124214321C57A
:10C0DC00EEE1FEC5EE01212421242124212421247A
:10C0EC0021242125214294E1FE64BD0121C162C5B8
:10C0FC00EEC5EEE11924212421242124212421251B
:10C10C002145214294E1FEE1FEC162432124212418
:10C11C002124212421452145214521452124212467
:10C12C0021242124212421242124212421242124DB
:10C13C0021242124210121E119C162C1620121259F
:10C14C0021242124212421242124212421242124BB
:10C15C0021242124212421242124212421252101CD
:10C16C00214294E1FEE1FEE1FEE1FE64BD432124A7
:10C17C002143214321432143214321432143214393
:10C18C002125212521242125212421242124212577
:10C19C0021252124214321C5EEE1FEC5EE012125F7
:10C1AC0021252125212521242124212421E119C502
:10C1BC00EEE1FEE1FEE1FEE1FE4294012143212489
:10C1CC0021242124212421242145214294E1FEE132
:10C1DC00FEC162432124212421242124214521450F
:10C1EC00214521242124212421242143214321439D
:10C1FC002143214321432124212421E119C5EEE1CE
:10C20C00FEE1FEE1FEC5EEE11924212421242124C6
:10C21C0021242124212421242124212421242124EA
:10C22C0021242143214321C162E1FEC5EEC5EE6408
:10C23C00BDC5EEE1FEC1624321C162C162C162C1F2
:10C24C0062C162C162C162C16243212421242124E2
:10C25C00212421242124212521252124214321C5E8
:10C26C00EEE1FEC5EE0121252125212521252124E4
:10C27C0021242124214521E119C5EEC5EEC5EE424C
:10C28C0094432145212521242124212421242124C6
:10C29C002145214294E1FEE1FEC162432124212487
:10C2AC00212421242145214521452124210121E15D
:10C2BC0019C162C162C162C162C162C162C1624321
:10C2CC00210121C5EEE1FEC5EE64BDC5EEE1FEC562
:10C2DC00EE4321242124212421242124212421243E
:10C2EC00212421242124212421242124210121421F
:10C2FC0094E1FEC16201214321C162E1FE64BD01F2
:10C30C0021C5EEE1FEE1FEE1FEE1FEE1FEE1FEE132
:10C31C00FEC5EE242124214521242124212421257C
:10C32C0021252124214321C5EEE1FEC5EE01212565
:10C33C0021252125212521242124212421252143A6
:10C34C0021012101210121432145212421252124E1
:10C35C0021242124212421242145214294E1FEE1A0
:10C36C00FEC162432124212421242124214521457D
:10C37C002145214321C162C5EEE1FEE1FEE1FEE172
:10C38C00FEE1FEE1FEE1FEC162E119E1FEE1FEC16A
:10C39C006243210121E1FEE1FEE119242124212443
:10C3AC002124212421242124212421242124212459
:10C3BC002124212421012164BDE1FEC16224212418
:10C3CC0021E119E1FEC5EE0121C5EEE1FEE1FEE140
:10C3DC00FEE1FEE1FEE1FEE1FEE1FE242125214528
:10C3EC00212421242124212521252124214321C557
:10C3FC00EEE1FEC5EE012125212521252124214335
:10C40C00212421242125214521E119E119E1194398
:10C41C0021452124212421242124212421242124C7
:10C42C002145214294E1FEE1FEC1624321242124F5
:10C43C0021242124214521452145214521C162E1A9
:10C44C00FEE1FEE1FEE1FEE1FEE1FEE1FEE1FEC108
:10C45C0062E119E1FEE1FEC16224214321E1FEE12A
:10C46C00FEE1192421242124212421242124212406
:10C47C00212421242124212421242124210121428D
:10C48C0094E1FE64BDE11901214294E1FE64BD0119
:10C49C0021C5EEE1FEE1FEE1FEE1FEE1FEE1FEE1A1
:10C4AC00FEE1FE24212521252124212421242125DE
:10C4BC0021252124214321C5EEE1FEC5EE012125D4
:10C4CC00212421242124212421242124212421015B
:10C4DC0021C5EEE1FEE1FEC1624521242124212487
:10C4EC0021242124212421252145214294E1FEE10E
:10C4FC00FEC16243212421242124212421452145EC
:10C50C002145214321C162E1FEE1FEE1FEE1FEE1B4
:10C51C00FEE1FEE1FEE1FEC162E119E1FEE1FE4257
:10C52C00940121E119E1FEE1FEE1192421242124E9
:10C53C0021242124212421242124212421242124C7
:10C54C0021242124212521E119C5EEE1FEE1FEE1A2
:10C55C00FEE1FEC5EEE11924214321432143214391
:10C56C002143210121C5EEE1FEE1FE2421252125F7
:10C57C00212421242124212521252124214321C5C5
:10C58C00EEE1FEC5EE0121452124212421242124A4
:10C59C00212421242124210121C5EEE1FEE1FEC14B
:10C5AC0062452124212421242124212421242125F4
:10C5BC002145214294E1FEE1FEC162432124212464
:10C5CC0021242124214521452145214321C162E11A
:10C5DC00FEE1FEE1FE4321432101210121432143E0
:10C5EC0021252164BDE1FEE1FEE1FEE1FEE1FE64F8
:10C5FC00BD2421242124212421242124212421246B
:10C60C002124212421242124212421252124210118
:10C61C0021E119C5EEC5EEC5EEC5EEC1620121439F
:10C62C0021432143214321432143210121C5EEE133
:10C63C00FEE1FE242125212421242124212421254D
:10C64C0021252124214321C5EEE1FEC5EE01212542
:10C65C0021242124212421242124212421242101C9
:10C66C0021C5EEE1FEE1FEC16245212421242124F5
:10C67C0021242124212421252145214294E1FEE17C
:10C68C00FEC162432124212421242124214521455A
:10C69C002145214521C162E1FEE1FEC5EE43214366
:10C6AC00214321432124212421242101214294C509
:10C6BC00EEC5EEC5EE42940121452124212421240E
:10C6CC002124212421242124212421242124212436
:10C6DC002124212421242143214321012101210151
:10C6EC002101214521252124212421242124212417
:10C6FC002143210121C5EEE1FEE1FE242125212467
:10C70C00212421242124212521252124214321C533
:10C71C00EEE1FEC5EE012125212421242124212432
:10C72C00212421242124210121C5EEE1FEE1FEC1B9
:10C73C006245212421242124212421242124212562
:10C74C002145214294E1FEE1FEC1624321242124D2
:10C75C0021242124214521452145214521C162E186
:10C76C00FEE1FEC5EE0121242124214321242124B4
:10C77C00212421432145210121012101212421438F
:10C78C002124212421242124212421242124212475
:10C79C002124212421242124212421242124212465
:10C7AC002124212421242124212421242124212455
:10C7BC0021242124212421242143210121C5EEE11E
:10C7CC00FEE1FE24212421242124212421242125BD
:10C7DC0021252124214321C5EEE1FEC5EE012125B1
:10C7EC002124212421242124212421242124210138
:10C7FC0021C5EEE1FEE1FEC1624521242124212464
:10C80C0021242124212421252145214294E1FEE1EA
:10C81C00FEC16243214521242124212421452145A7
:10C82C002145214521C162E1FEE1FEC5EE01212534
:10C83C0021242124212421242124212421242124C4
:10C84C0021242124212421242124212421242124B4
:10C85C0021242124212421242124212421242124A4
:10C86C002124212421242124212421242124212494
:10C87C002124212421242124212421242124212484
:10C88C002145210121C5EEE1FEE1FE2521242124D3
:10C89C00212421242124212521252124214321C5A2
:10C8AC00EEE1FEC5EE0121252124212421242124A1
:10C8BC00212421242124210121C5EEE1FEE1FEC128
:10C8CC0062452124212421242124212421242125D1
:10C8DC002145214294E1FEE1FEC162432145212420
:10C8EC0021242124214521452145214521C162E1F5
:10C8FC00FEE1FEC5EE012125212421242124212441
:10C90C0021242124212421242124212421242124F3
:10C91C0021242124212421242124212421242124E3
:10C92C0021242124212421242124212421242124D3
:10C93C0021242124212421242124212421242124C3
:10C94C0021242124212421242143210121C5EEE18C
:10C95C00FEE1FE242124212421242124212421252B
:10C96C0021252124214321C5EEE1FEC5EE0121251F
:10C97C0021242124212421242124212421242101A6
:10C98C0021C5EEE1FEE1FEC16245212421242124D2
:10C99C0021242124212421252145214294E1FEE159
:10C9AC00FEC1624321452124212421242145214516
:10C9BC002145214521C162E1FEE1FEC5EE012125A3
:10C9CC002124212421242124212421242124212433
:10C9DC002124212421242124212421242124212423
:10C9EC002124212421242124212421242124212413
:10C9FC002124212421242124212421242124212403
:10CA0C0021242124212421242124212421242124F2
:10CA1C002143210121C5EEE1FEE1FE242124212444
:10CA2C00212421242124212421242124214321C512
:10CA3C00EEE1FEC5EE01212521242124212421240F
:10CA4C00212421242124210121C5EEE1FEE1FEC196
:10CA5C00622521252124212421242124212421255E
:10CA6C002145214294E1FEE1FEC16243214521248E
:10CA7C0021242124214521452145214521C162E163
:10CA8C00FEE1FEC5EE0121252125212421242124AE
:10CA9C002124212421242124212421242124212462
:10CAAC002124212421242124212421242124212452
:10CABC002124212421242124212421242124212442
:10CACC002124212421242124212421242124212432
:10CADC0021242124212421242143210121C5EEE1FB
:10CAEC00FEE1FE242143212421242124212421247C
:10CAFC0021242124214321C5EEE1FEC5EE0121258F
:10CB0C002124212421242124212421242124210114
:10CB1C0021C5EEE1FEE1FEC162452125212521243E
:10CB2C0021242124212421252145214294E1FEE1C7
:10CB3C00FEC16201212421242124212421452145E7
:10CB4C002145214521C162E1FEE1FEC5EE01212511
:10CB5C002125212521432124212421242124212480
:10CB6C002124212421242124212421242124212491
:10CB7C002124212421242124212421242124212481
:10CB8C002124212421242124212421242124212471
:10CB9C002124212421242124212421242124212461
:10CBAC002143210121C5EEE1FEE1FE242143212494
:10CBBC00212421242124212521252124214321C57F
:10CBCC00EEE1FEC5EE01212521242124212421247E
:10CBDC00212421242124210121C5EEE1FEC5EEC131
:10CBEC0062252124212421242124212421252124CE
:10CBFC002145214294E1FEE1FEC16243212421241E
:10CC0C0021242124214521452145214521C162E1D1
:10CC1C00FEE1FEC5EE0121252125214321432124DE
:10CC2C0021242124212421242124212421242124D0
:10CC3C0021242124212421242124212421242124C0
:10CC4C0021242124212421242124212421242124B0
:10CC5C0021242124212421242124212421242124A0
:10CC6C0021242124214521452143210121C5EEE127
:10CC7C00FEE1FE24214321242124212421242125E9
:10CC8C002125212421432164BDE1FEC5EE0121258E
:10CC9C00212421452125212521252125212521243A
:10CCAC002164BDE1FEC5EEE11924212421242124B7
:10CCBC002124212421242143212421C162E1FEE1EC
:10CCCC00FEC1620121242124212421242145214556
:10CCDC002145214521C162E1FEE1FEC5EE01212580
:10CCEC0021252143214321242124212421242124D1
:10CCFC002124212421242124212421242124212400
:10CD0C0021242124212421242124212421242124EF
:10CD1C0021242124212421242124212421242124DF
:10CD2C0021242124212421242124212421242124CF
:10CD3C0021242124212421012124212421242124E2
:10CD4C0021242124212421242124212421242124AF
:10CD5C00212421242125212421242124212421249E
:10CD6C0021242124212421012101210121242124F8
:10CD7C0021242124212421242124212421012101C5
:10CD8C00212421242124212421242124212421246F
:10CD9C002124212421242124212421242124210182
:10CDAC002124210121242124212421242143212453
:10CDBC00212421242124212421242124212421243F
:10CDCC00212421242124212421242124212421242F
:10CDDC00212421242124212421242124212421241F
:10CDEC00212421242124212421242124212421240F
:10CDFC00214321E119631E631E631E631E631E63C0
:10CE0C001E631E631E631E631E631E631E631E630E
:10CE1C001E631E631E631E631E631E631E631E63FE
:10CE2C001E631E631E631E631E631E631E631E63EE
:10CE3C001E631E631E631E631E631E631E631E63DE
:10CE4C001E631E631E631E631E631E631E631E63CE
:10CE5C001E631E631E631E631E631E631E631E63BE
:10CE6C001E631E631E631E631E631E631E631E63AE
:10CE7C001E631E010DE119252124212421242124C6
:10CE8C00212421242124212421242124212421246E
:10CE9C00212421242124212421242124212421245E
:10CEAC00212421242124212421242124212421244E
:10CEBC00212421242124212421E119631EE007E0EF
:10CECC0007E007E007E007E007E007E007E007E01E
:10CEDC0007E007E007E007E007E007E007E007E00E
:10CEEC0007E007E007E007E007E007E007E007E0FE
:10CEFC0007E007E007E007E007E007E007E007E0EE
:10CF0C0007E007E007E007E007E007E007E007E0DD
:10CF1C0007E007E007E007E007E007E007E007E0CD
:10CF2C0007E007E007E007E007E007E007E007E0BD
:10CF3C0007E007E007E007E007E007E007631EE112
:10CF4C001943212421242124212421242124212496
:10CF5C00212421242124212421242124212421249D
:10CF6C00212421242124212421242124212421248D
:10CF7C00212421242124212421242124212421247D
:10CF8C0021631EE007E007E007E007E007E007E0A9
:10CF9C0007E007E007E007E007E007E007E007E04D
:10CFAC0007E007E007E007E007E007E007E007E03D
:10CFBC0007E007E007E007E007E007E007E007E02D
:10CFCC0007E007E007E007E007E007E007E007E01D
:10CFDC0007E007E007E007E007E007E007E007E00D
:10CFEC0007E007E007E007E007E007E007E007E0FD
:10CFFC0007E007E007E007E007E007E007E007E0ED
:10D00C0007E007E007E007E119432124212421244C
:10D01C0021242124212421242124212421242124DC
:10D02C0021242124212421242124212421242124CC
:10D03C0021242124212421242124212421242124BC
:10D04C00212421242124212421631EE007E007E070
:10D05C0007E007E007E007E007E007E007E007E08C
:10D06C0007E007E007E007E007E007E007E007E07C
:10D07C0007E007E007E007E007E007E007E007E06C
:10D08C0007E007E007E007E007E007E007E007E05C
:10D09C0007E007E007E007E007E007E007E007E04C
:10D0AC0007E007E007E007E007E007E007E007E03C
:10D0BC0007E007E007E007E007E007E007E007E02C
:10D0CC0007E007E007E007E007E007E007E007E11B
:10D0DC001943212421242124212421242124212405
:10D0EC00212421242124212421242124212421240C
:10D0FC0021242124212421242124212421242124FC
:10D10C0021242124212421242124212421242124EB
:10D11C0021631EE007E007E007E007E007E007E017
:10D12C0007E007E007E007E007E007E007E007E0BB
:10D13C0007E007E007E007E007E007E007E007E0AB
:10D14C0007E007E007E007E007E007E007E007E09B
:10D15C0007E007E007E007E007E007E007E007E08B
:10D16C0007E007E007E007E007E007E007E007E07B
